{
	"data": {
		"bytecode": {
			"linkReferences": {},
			"object": "6080604052348015600e575f80fd5b50335f806101000a81548173ffffffffffffffffffffffffffffffffffffffff021916908373ffffffffffffffffffffffffffffffffffffffff1602179055506113668061005b5f395ff3fe608060405260043610610054575f3560e01c806331d575c51461005857806351cff8d914610080578063722713f71461009c5780637285fd3a146100c6578063a25db8ce14610107578063f340fa0114610143575b5f80fd5b348015610063575f80fd5b5061007e60048036038101906100799190610b27565b61015f565b005b61009a60048036038101906100959190610be8565b610306565b005b3480156100a7575f80fd5b506100b06104e3565b6040516100bd9190610c22565b60405180910390f35b3480156100d1575f80fd5b506100ec60048036038101906100e79190610c3b565b6104ea565b6040516100fe96959493929190610ce4565b60405180910390f35b348015610112575f80fd5b5061012d60048036038101906101289190610d8c565b610668565b60405161013a9190610db7565b60405180910390f35b61015d60048036038101906101589190610d8c565b610753565b005b5f8054906101000a900473ffffffffffffffffffffffffffffffffffffffff1673ffffffffffffffffffffffffffffffffffffffff163373ffffffffffffffffffffffffffffffffffffffff16146101ec576040517f08c379a00000000000000000000000000000000000000000000000000000000081526004016101e390610e1a565b60405180910390fd5b60016040518060c001604052808873ffffffffffffffffffffffffffffffffffffffff168152602001878152602001868152602001858152602001848152602001831515815250908060018154018082558091505060019003905f5260205f2090600602015f909190919091505f820151815f015f6101000a81548173ffffffffffffffffffffffffffffffffffffffff021916908373ffffffffffffffffffffffffffffffffffffffff16021790555060208201518160010190816102b29190611032565b5060408201518160020190816102c89190611032565b50606082015181600301556080820151816004015560a0820151816005015f6101000a81548160ff0219169083151502179055505050505050505050565b5f6103108261075f565b90506001818154811061032657610325611101565b5b905f5260205f2090600602015f015f9054906101000a900473ffffffffffffffffffffffffffffffffffffffff1673ffffffffffffffffffffffffffffffffffffffff163373ffffffffffffffffffffffffffffffffffffffff16146103c1576040517f08c379a00000000000000000000000000000000000000000000000000000000081526004016103b890611178565b60405180910390fd5b60011515600182815481106103d9576103d8611101565b5b905f5260205f2090600602016005015f9054906101000a900460ff16151514610437576040517f08c379a000000000000000000000000000000000000000000000000000000000815260040161042e90611206565b60405180910390fd5b6001818154811061044b5761044a611101565b5b905f5260205f2090600602015f015f9054906101000a900473ffffffffffffffffffffffffffffffffffffffff1673ffffffffffffffffffffffffffffffffffffffff166108fc600183815481106104a6576104a5611101565b5b905f5260205f2090600602016004015490811502906040515f60405180830381858888f193505050501580156104de573d5f803e3d5ffd5b505050565b5f47905090565b600181815481106104f9575f80fd5b905f5260205f2090600602015f91509050805f015f9054906101000a900473ffffffffffffffffffffffffffffffffffffffff169080600101805461053d90610e65565b80601f016020809104026020016040519081016040528092919081815260200182805461056990610e65565b80156105b45780601f1061058b576101008083540402835291602001916105b4565b820191905f5260205f20905b81548152906001019060200180831161059757829003601f168201915b5050505050908060020180546105c990610e65565b80601f01602080910402602001604051908101604052809291908181526020018280546105f590610e65565b80156106405780601f1061061757610100808354040283529160200191610640565b820191905f5260205f20905b81548152906001019060200180831161062357829003601f168201915b505050505090806003015490806004015490806005015f9054906101000a900460ff16905086565b5f806106738361075f565b90506001818154811061068957610688611101565b5b905f5260205f2090600602016003015442116106da576040517f08c379a00000000000000000000000000000000000000000000000000000000081526004016106d19061126e565b60405180910390fd5b600181815481106106ee576106ed611101565b5b905f5260205f2090600602016003015442111561074957600180828154811061071a57610719611101565b5b905f5260205f2090600602016005015f6101000a81548160ff021916908315150217905550600191505061074e565b5f9150505b919050565b61075c81610808565b50565b5f805f90505b6001805490508110156107fc578273ffffffffffffffffffffffffffffffffffffffff166001828154811061079d5761079c611101565b5b905f5260205f2090600602015f015f9054906101000a900473ffffffffffffffffffffffffffffffffffffffff1673ffffffffffffffffffffffffffffffffffffffff16036107ef5780915050610803565b8080600101915050610765565b506103e790505b919050565b5f5b600180549050811015610914578173ffffffffffffffffffffffffffffffffffffffff166001828154811061084257610841611101565b5b905f5260205f2090600602015f015f9054906101000a900473ffffffffffffffffffffffffffffffffffffffff1673ffffffffffffffffffffffffffffffffffffffff16036109075734600182815481106108a05761089f611101565b5b905f5260205f2090600602016004015f8282546108bd91906112b9565b925050819055507fdfa390b0c1c515579c441209b0f88953b3383e444305380136073b84d9ae5eaf82346108ef6104e3565b6040516108fe939291906112fb565b60405180910390a15b808060010191505061080a565b5050565b5f604051905090565b5f80fd5b5f80fd5b5f73ffffffffffffffffffffffffffffffffffffffff82169050919050565b5f61095282610929565b9050919050565b61096281610948565b811461096c575f80fd5b50565b5f8135905061097d81610959565b92915050565b5f80fd5b5f80fd5b5f601f19601f8301169050919050565b7f4e487b71000000000000000000000000000000000000000000000000000000005f52604160045260245ffd5b6109d18261098b565b810181811067ffffffffffffffff821117156109f0576109ef61099b565b5b80604052505050565b5f610a02610918565b9050610a0e82826109c8565b919050565b5f67ffffffffffffffff821115610a2d57610a2c61099b565b5b610a368261098b565b9050602081019050919050565b828183375f83830152505050565b5f610a63610a5e84610a13565b6109f9565b905082815260208101848484011115610a7f57610a7e610987565b5b610a8a848285610a43565b509392505050565b5f82601f830112610aa657610aa5610983565b5b8135610ab6848260208601610a51565b91505092915050565b5f819050919050565b610ad181610abf565b8114610adb575f80fd5b50565b5f81359050610aec81610ac8565b92915050565b5f8115159050919050565b610b0681610af2565b8114610b10575f80fd5b50565b5f81359050610b2181610afd565b92915050565b5f805f805f8060c08789031215610b4157610b40610921565b5b5f610b4e89828a0161096f565b965050602087013567ffffffffffffffff811115610b6f57610b6e610925565b5b610b7b89828a01610a92565b955050604087013567ffffffffffffffff811115610b9c57610b9b610925565b5b610ba889828a01610a92565b9450506060610bb989828a01610ade565b9350506080610bca89828a01610ade565b92505060a0610bdb89828a01610b13565b9150509295509295509295565b5f60208284031215610bfd57610bfc610921565b5b5f610c0a8482850161096f565b91505092915050565b610c1c81610abf565b82525050565b5f602082019050610c355f830184610c13565b92915050565b5f60208284031215610c5057610c4f610921565b5b5f610c5d84828501610ade565b91505092915050565b610c6f81610948565b82525050565b5f81519050919050565b5f82825260208201905092915050565b8281835e5f83830152505050565b5f610ca782610c75565b610cb18185610c7f565b9350610cc1818560208601610c8f565b610cca8161098b565b840191505092915050565b610cde81610af2565b82525050565b5f60c082019050610cf75f830189610c66565b8181036020830152610d098188610c9d565b90508181036040830152610d1d8187610c9d565b9050610d2c6060830186610c13565b610d396080830185610c13565b610d4660a0830184610cd5565b979650505050505050565b5f610d5b82610929565b9050919050565b610d6b81610d51565b8114610d75575f80fd5b50565b5f81359050610d8681610d62565b92915050565b5f60208284031215610da157610da0610921565b5b5f610dae84828501610d78565b91505092915050565b5f602082019050610dca5f830184610cd5565b92915050565b7f4f6e6c7920746865206f776e65722063616e20616464206b69647300000000005f82015250565b5f610e04601b83610c7f565b9150610e0f82610dd0565b602082019050919050565b5f6020820190508181035f830152610e3181610df8565b9050919050565b7f4e487b71000000000000000000000000000000000000000000000000000000005f52602260045260245ffd5b5f6002820490506001821680610e7c57607f821691505b602082108103610e8f57610e8e610e38565b5b50919050565b5f819050815f5260205f209050919050565b5f6020601f8301049050919050565b5f82821b905092915050565b5f60088302610ef17fffffffffffffffffffffffffffffffffffffffffffffffffffffffffffffffff82610eb6565b610efb8683610eb6565b95508019841693508086168417925050509392505050565b5f819050919050565b5f610f36610f31610f2c84610abf565b610f13565b610abf565b9050919050565b5f819050919050565b610f4f83610f1c565b610f63610f5b82610f3d565b848454610ec2565b825550505050565b5f90565b610f77610f6b565b610f82818484610f46565b505050565b5b81811015610fa557610f9a5f82610f6f565b600181019050610f88565b5050565b601f821115610fea57610fbb81610e95565b610fc484610ea7565b81016020851015610fd3578190505b610fe7610fdf85610ea7565b830182610f87565b50505b505050565b5f82821c905092915050565b5f61100a5f1984600802610fef565b1980831691505092915050565b5f6110228383610ffb565b9150826002028217905092915050565b61103b82610c75565b67ffffffffffffffff8111156110545761105361099b565b5b61105e8254610e65565b611069828285610fa9565b5f60209050601f83116001811461109a575f8415611088578287015190505b6110928582611017565b8655506110f9565b601f1984166110a886610e95565b5f5b828110156110cf578489015182556001820191506020850194506020810190506110aa565b868310156110ec57848901516110e8601f891682610ffb565b8355505b6001600288020188555050505b505050505050565b7f4e487b71000000000000000000000000000000000000000000000000000000005f52603260045260245ffd5b7f596f75206d75737420626520746865206b696420746f207769746864726177005f82015250565b5f611162601f83610c7f565b915061116d8261112e565b602082019050919050565b5f6020820190508181035f83015261118f81611156565b9050919050565b7f596f7520617265206e6f742061626c6520746f207769746864726177206174205f8201527f746869732074696d650000000000000000000000000000000000000000000000602082015250565b5f6111f0602983610c7f565b91506111fb82611196565b604082019050919050565b5f6020820190508181035f83015261121d816111e4565b9050919050565b7f596f752063616e6e6f74207769746864726177207965740000000000000000005f82015250565b5f611258601783610c7f565b915061126382611224565b602082019050919050565b5f6020820190508181035f8301526112858161124c565b9050919050565b7f4e487b71000000000000000000000000000000000000000000000000000000005f52601160045260245ffd5b5f6112c382610abf565b91506112ce83610abf565b92508282019050808211156112e6576112e561128c565b5b92915050565b6112f581610d51565b82525050565b5f60608201905061130e5f8301866112ec565b61131b6020830185610c13565b6113286040830184610c13565b94935050505056fea2646970667358221220ea96019bee53e1fef9bd5b49f1ca3505af96bf9da527920c8079ae2cfb17444164736f6c634300081a0033",
			"opcodes": "PUSH1 0x80 PUSH1 0x40 MSTORE CALLVALUE DUP1 ISZERO PUSH1 0xE JUMPI PUSH0 DUP1 REVERT JUMPDEST POP CALLER PUSH0 DUP1 PUSH2 0x100 EXP DUP2 SLOAD DUP2 PUSH20 0xFFFFFFFFFFFFFFFFFFFFFFFFFFFFFFFFFFFFFFFF MUL NOT AND SWAP1 DUP4 PUSH20 0xFFFFFFFFFFFFFFFFFFFFFFFFFFFFFFFFFFFFFFFF AND MUL OR SWAP1 SSTORE POP PUSH2 0x1366 DUP1 PUSH2 0x5B PUSH0 CODECOPY PUSH0 RETURN INVALID PUSH1 0x80 PUSH1 0x40 MSTORE PUSH1 0x4 CALLDATASIZE LT PUSH2 0x54 JUMPI PUSH0 CALLDATALOAD PUSH1 0xE0 SHR DUP1 PUSH4 0x31D575C5 EQ PUSH2 0x58 JUMPI DUP1 PUSH4 0x51CFF8D9 EQ PUSH2 0x80 JUMPI DUP1 PUSH4 0x722713F7 EQ PUSH2 0x9C JUMPI DUP1 PUSH4 0x7285FD3A EQ PUSH2 0xC6 JUMPI DUP1 PUSH4 0xA25DB8CE EQ PUSH2 0x107 JUMPI DUP1 PUSH4 0xF340FA01 EQ PUSH2 0x143 JUMPI JUMPDEST PUSH0 DUP1 REVERT JUMPDEST CALLVALUE DUP1 ISZERO PUSH2 0x63 JUMPI PUSH0 DUP1 REVERT JUMPDEST POP PUSH2 0x7E PUSH1 0x4 DUP1 CALLDATASIZE SUB DUP2 ADD SWAP1 PUSH2 0x79 SWAP2 SWAP1 PUSH2 0xB27 JUMP JUMPDEST PUSH2 0x15F JUMP JUMPDEST STOP JUMPDEST PUSH2 0x9A PUSH1 0x4 DUP1 CALLDATASIZE SUB DUP2 ADD SWAP1 PUSH2 0x95 SWAP2 SWAP1 PUSH2 0xBE8 JUMP JUMPDEST PUSH2 0x306 JUMP JUMPDEST STOP JUMPDEST CALLVALUE DUP1 ISZERO PUSH2 0xA7 JUMPI PUSH0 DUP1 REVERT JUMPDEST POP PUSH2 0xB0 PUSH2 0x4E3 JUMP JUMPDEST PUSH1 0x40 MLOAD PUSH2 0xBD SWAP2 SWAP1 PUSH2 0xC22 JUMP JUMPDEST PUSH1 0x40 MLOAD DUP1 SWAP2 SUB SWAP1 RETURN JUMPDEST CALLVALUE DUP1 ISZERO PUSH2 0xD1 JUMPI PUSH0 DUP1 REVERT JUMPDEST POP PUSH2 0xEC PUSH1 0x4 DUP1 CALLDATASIZE SUB DUP2 ADD SWAP1 PUSH2 0xE7 SWAP2 SWAP1 PUSH2 0xC3B JUMP JUMPDEST PUSH2 0x4EA JUMP JUMPDEST PUSH1 0x40 MLOAD PUSH2 0xFE SWAP7 SWAP6 SWAP5 SWAP4 SWAP3 SWAP2 SWAP1 PUSH2 0xCE4 JUMP JUMPDEST PUSH1 0x40 MLOAD DUP1 SWAP2 SUB SWAP1 RETURN JUMPDEST CALLVALUE DUP1 ISZERO PUSH2 0x112 JUMPI PUSH0 DUP1 REVERT JUMPDEST POP PUSH2 0x12D PUSH1 0x4 DUP1 CALLDATASIZE SUB DUP2 ADD SWAP1 PUSH2 0x128 SWAP2 SWAP1 PUSH2 0xD8C JUMP JUMPDEST PUSH2 0x668 JUMP JUMPDEST PUSH1 0x40 MLOAD PUSH2 0x13A SWAP2 SWAP1 PUSH2 0xDB7 JUMP JUMPDEST PUSH1 0x40 MLOAD DUP1 SWAP2 SUB SWAP1 RETURN JUMPDEST PUSH2 0x15D PUSH1 0x4 DUP1 CALLDATASIZE SUB DUP2 ADD SWAP1 PUSH2 0x158 SWAP2 SWAP1 PUSH2 0xD8C JUMP JUMPDEST PUSH2 0x753 JUMP JUMPDEST STOP JUMPDEST PUSH0 DUP1 SLOAD SWAP1 PUSH2 0x100 EXP SWAP1 DIV PUSH20 0xFFFFFFFFFFFFFFFFFFFFFFFFFFFFFFFFFFFFFFFF AND PUSH20 0xFFFFFFFFFFFFFFFFFFFFFFFFFFFFFFFFFFFFFFFF AND CALLER PUSH20 0xFFFFFFFFFFFFFFFFFFFFFFFFFFFFFFFFFFFFFFFF AND EQ PUSH2 0x1EC JUMPI PUSH1 0x40 MLOAD PUSH32 0x8C379A000000000000000000000000000000000000000000000000000000000 DUP2 MSTORE PUSH1 0x4 ADD PUSH2 0x1E3 SWAP1 PUSH2 0xE1A JUMP JUMPDEST PUSH1 0x40 MLOAD DUP1 SWAP2 SUB SWAP1 REVERT JUMPDEST PUSH1 0x1 PUSH1 0x40 MLOAD DUP1 PUSH1 0xC0 ADD PUSH1 0x40 MSTORE DUP1 DUP9 PUSH20 0xFFFFFFFFFFFFFFFFFFFFFFFFFFFFFFFFFFFFFFFF AND DUP2 MSTORE PUSH1 0x20 ADD DUP8 DUP2 MSTORE PUSH1 0x20 ADD DUP7 DUP2 MSTORE PUSH1 0x20 ADD DUP6 DUP2 MSTORE PUSH1 0x20 ADD DUP5 DUP2 MSTORE PUSH1 0x20 ADD DUP4 ISZERO ISZERO DUP2 MSTORE POP SWAP1 DUP1 PUSH1 0x1 DUP2 SLOAD ADD DUP1 DUP3 SSTORE DUP1 SWAP2 POP POP PUSH1 0x1 SWAP1 SUB SWAP1 PUSH0 MSTORE PUSH1 0x20 PUSH0 KECCAK256 SWAP1 PUSH1 0x6 MUL ADD PUSH0 SWAP1 SWAP2 SWAP1 SWAP2 SWAP1 SWAP2 POP PUSH0 DUP3 ADD MLOAD DUP2 PUSH0 ADD PUSH0 PUSH2 0x100 EXP DUP2 SLOAD DUP2 PUSH20 0xFFFFFFFFFFFFFFFFFFFFFFFFFFFFFFFFFFFFFFFF MUL NOT AND SWAP1 DUP4 PUSH20 0xFFFFFFFFFFFFFFFFFFFFFFFFFFFFFFFFFFFFFFFF AND MUL OR SWAP1 SSTORE POP PUSH1 0x20 DUP3 ADD MLOAD DUP2 PUSH1 0x1 ADD SWAP1 DUP2 PUSH2 0x2B2 SWAP2 SWAP1 PUSH2 0x1032 JUMP JUMPDEST POP PUSH1 0x40 DUP3 ADD MLOAD DUP2 PUSH1 0x2 ADD SWAP1 DUP2 PUSH2 0x2C8 SWAP2 SWAP1 PUSH2 0x1032 JUMP JUMPDEST POP PUSH1 0x60 DUP3 ADD MLOAD DUP2 PUSH1 0x3 ADD SSTORE PUSH1 0x80 DUP3 ADD MLOAD DUP2 PUSH1 0x4 ADD SSTORE PUSH1 0xA0 DUP3 ADD MLOAD DUP2 PUSH1 0x5 ADD PUSH0 PUSH2 0x100 EXP DUP2 SLOAD DUP2 PUSH1 0xFF MUL NOT AND SWAP1 DUP4 ISZERO ISZERO MUL OR SWAP1 SSTORE POP POP POP POP POP POP POP POP POP JUMP JUMPDEST PUSH0 PUSH2 0x310 DUP3 PUSH2 0x75F JUMP JUMPDEST SWAP1 POP PUSH1 0x1 DUP2 DUP2 SLOAD DUP2 LT PUSH2 0x326 JUMPI PUSH2 0x325 PUSH2 0x1101 JUMP JUMPDEST JUMPDEST SWAP1 PUSH0 MSTORE PUSH1 0x20 PUSH0 KECCAK256 SWAP1 PUSH1 0x6 MUL ADD PUSH0 ADD PUSH0 SWAP1 SLOAD SWAP1 PUSH2 0x100 EXP SWAP1 DIV PUSH20 0xFFFFFFFFFFFFFFFFFFFFFFFFFFFFFFFFFFFFFFFF AND PUSH20 0xFFFFFFFFFFFFFFFFFFFFFFFFFFFFFFFFFFFFFFFF AND CALLER PUSH20 0xFFFFFFFFFFFFFFFFFFFFFFFFFFFFFFFFFFFFFFFF AND EQ PUSH2 0x3C1 JUMPI PUSH1 0x40 MLOAD PUSH32 0x8C379A000000000000000000000000000000000000000000000000000000000 DUP2 MSTORE PUSH1 0x4 ADD PUSH2 0x3B8 SWAP1 PUSH2 0x1178 JUMP JUMPDEST PUSH1 0x40 MLOAD DUP1 SWAP2 SUB SWAP1 REVERT JUMPDEST PUSH1 0x1 ISZERO ISZERO PUSH1 0x1 DUP3 DUP2 SLOAD DUP2 LT PUSH2 0x3D9 JUMPI PUSH2 0x3D8 PUSH2 0x1101 JUMP JUMPDEST JUMPDEST SWAP1 PUSH0 MSTORE PUSH1 0x20 PUSH0 KECCAK256 SWAP1 PUSH1 0x6 MUL ADD PUSH1 0x5 ADD PUSH0 SWAP1 SLOAD SWAP1 PUSH2 0x100 EXP SWAP1 DIV PUSH1 0xFF AND ISZERO ISZERO EQ PUSH2 0x437 JUMPI PUSH1 0x40 MLOAD PUSH32 0x8C379A000000000000000000000000000000000000000000000000000000000 DUP2 MSTORE PUSH1 0x4 ADD PUSH2 0x42E SWAP1 PUSH2 0x1206 JUMP JUMPDEST PUSH1 0x40 MLOAD DUP1 SWAP2 SUB SWAP1 REVERT JUMPDEST PUSH1 0x1 DUP2 DUP2 SLOAD DUP2 LT PUSH2 0x44B JUMPI PUSH2 0x44A PUSH2 0x1101 JUMP JUMPDEST JUMPDEST SWAP1 PUSH0 MSTORE PUSH1 0x20 PUSH0 KECCAK256 SWAP1 PUSH1 0x6 MUL ADD PUSH0 ADD PUSH0 SWAP1 SLOAD SWAP1 PUSH2 0x100 EXP SWAP1 DIV PUSH20 0xFFFFFFFFFFFFFFFFFFFFFFFFFFFFFFFFFFFFFFFF AND PUSH20 0xFFFFFFFFFFFFFFFFFFFFFFFFFFFFFFFFFFFFFFFF AND PUSH2 0x8FC PUSH1 0x1 DUP4 DUP2 SLOAD DUP2 LT PUSH2 0x4A6 JUMPI PUSH2 0x4A5 PUSH2 0x1101 JUMP JUMPDEST JUMPDEST SWAP1 PUSH0 MSTORE PUSH1 0x20 PUSH0 KECCAK256 SWAP1 PUSH1 0x6 MUL ADD PUSH1 0x4 ADD SLOAD SWAP1 DUP2 ISZERO MUL SWAP1 PUSH1 0x40 MLOAD PUSH0 PUSH1 0x40 MLOAD DUP1 DUP4 SUB DUP2 DUP6 DUP9 DUP9 CALL SWAP4 POP POP POP POP ISZERO DUP1 ISZERO PUSH2 0x4DE JUMPI RETURNDATASIZE PUSH0 DUP1 RETURNDATACOPY RETURNDATASIZE PUSH0 REVERT JUMPDEST POP POP POP JUMP JUMPDEST PUSH0 SELFBALANCE SWAP1 POP SWAP1 JUMP JUMPDEST PUSH1 0x1 DUP2 DUP2 SLOAD DUP2 LT PUSH2 0x4F9 JUMPI PUSH0 DUP1 REVERT JUMPDEST SWAP1 PUSH0 MSTORE PUSH1 0x20 PUSH0 KECCAK256 SWAP1 PUSH1 0x6 MUL ADD PUSH0 SWAP2 POP SWAP1 POP DUP1 PUSH0 ADD PUSH0 SWAP1 SLOAD SWAP1 PUSH2 0x100 EXP SWAP1 DIV PUSH20 0xFFFFFFFFFFFFFFFFFFFFFFFFFFFFFFFFFFFFFFFF AND SWAP1 DUP1 PUSH1 0x1 ADD DUP1 SLOAD PUSH2 0x53D SWAP1 PUSH2 0xE65 JUMP JUMPDEST DUP1 PUSH1 0x1F ADD PUSH1 0x20 DUP1 SWAP2 DIV MUL PUSH1 0x20 ADD PUSH1 0x40 MLOAD SWAP1 DUP2 ADD PUSH1 0x40 MSTORE DUP1 SWAP3 SWAP2 SWAP1 DUP2 DUP2 MSTORE PUSH1 0x20 ADD DUP3 DUP1 SLOAD PUSH2 0x569 SWAP1 PUSH2 0xE65 JUMP JUMPDEST DUP1 ISZERO PUSH2 0x5B4 JUMPI DUP1 PUSH1 0x1F LT PUSH2 0x58B JUMPI PUSH2 0x100 DUP1 DUP4 SLOAD DIV MUL DUP4 MSTORE SWAP2 PUSH1 0x20 ADD SWAP2 PUSH2 0x5B4 JUMP JUMPDEST DUP3 ADD SWAP2 SWAP1 PUSH0 MSTORE PUSH1 0x20 PUSH0 KECCAK256 SWAP1 JUMPDEST DUP2 SLOAD DUP2 MSTORE SWAP1 PUSH1 0x1 ADD SWAP1 PUSH1 0x20 ADD DUP1 DUP4 GT PUSH2 0x597 JUMPI DUP3 SWAP1 SUB PUSH1 0x1F AND DUP3 ADD SWAP2 JUMPDEST POP POP POP POP POP SWAP1 DUP1 PUSH1 0x2 ADD DUP1 SLOAD PUSH2 0x5C9 SWAP1 PUSH2 0xE65 JUMP JUMPDEST DUP1 PUSH1 0x1F ADD PUSH1 0x20 DUP1 SWAP2 DIV MUL PUSH1 0x20 ADD PUSH1 0x40 MLOAD SWAP1 DUP2 ADD PUSH1 0x40 MSTORE DUP1 SWAP3 SWAP2 SWAP1 DUP2 DUP2 MSTORE PUSH1 0x20 ADD DUP3 DUP1 SLOAD PUSH2 0x5F5 SWAP1 PUSH2 0xE65 JUMP JUMPDEST DUP1 ISZERO PUSH2 0x640 JUMPI DUP1 PUSH1 0x1F LT PUSH2 0x617 JUMPI PUSH2 0x100 DUP1 DUP4 SLOAD DIV MUL DUP4 MSTORE SWAP2 PUSH1 0x20 ADD SWAP2 PUSH2 0x640 JUMP JUMPDEST DUP3 ADD SWAP2 SWAP1 PUSH0 MSTORE PUSH1 0x20 PUSH0 KECCAK256 SWAP1 JUMPDEST DUP2 SLOAD DUP2 MSTORE SWAP1 PUSH1 0x1 ADD SWAP1 PUSH1 0x20 ADD DUP1 DUP4 GT PUSH2 0x623 JUMPI DUP3 SWAP1 SUB PUSH1 0x1F AND DUP3 ADD SWAP2 JUMPDEST POP POP POP POP POP SWAP1 DUP1 PUSH1 0x3 ADD SLOAD SWAP1 DUP1 PUSH1 0x4 ADD SLOAD SWAP1 DUP1 PUSH1 0x5 ADD PUSH0 SWAP1 SLOAD SWAP1 PUSH2 0x100 EXP SWAP1 DIV PUSH1 0xFF AND SWAP1 POP DUP7 JUMP JUMPDEST PUSH0 DUP1 PUSH2 0x673 DUP4 PUSH2 0x75F JUMP JUMPDEST SWAP1 POP PUSH1 0x1 DUP2 DUP2 SLOAD DUP2 LT PUSH2 0x689 JUMPI PUSH2 0x688 PUSH2 0x1101 JUMP JUMPDEST JUMPDEST SWAP1 PUSH0 MSTORE PUSH1 0x20 PUSH0 KECCAK256 SWAP1 PUSH1 0x6 MUL ADD PUSH1 0x3 ADD SLOAD TIMESTAMP GT PUSH2 0x6DA JUMPI PUSH1 0x40 MLOAD PUSH32 0x8C379A000000000000000000000000000000000000000000000000000000000 DUP2 MSTORE PUSH1 0x4 ADD PUSH2 0x6D1 SWAP1 PUSH2 0x126E JUMP JUMPDEST PUSH1 0x40 MLOAD DUP1 SWAP2 SUB SWAP1 REVERT JUMPDEST PUSH1 0x1 DUP2 DUP2 SLOAD DUP2 LT PUSH2 0x6EE JUMPI PUSH2 0x6ED PUSH2 0x1101 JUMP JUMPDEST JUMPDEST SWAP1 PUSH0 MSTORE PUSH1 0x20 PUSH0 KECCAK256 SWAP1 PUSH1 0x6 MUL ADD PUSH1 0x3 ADD SLOAD TIMESTAMP GT ISZERO PUSH2 0x749 JUMPI PUSH1 0x1 DUP1 DUP3 DUP2 SLOAD DUP2 LT PUSH2 0x71A JUMPI PUSH2 0x719 PUSH2 0x1101 JUMP JUMPDEST JUMPDEST SWAP1 PUSH0 MSTORE PUSH1 0x20 PUSH0 KECCAK256 SWAP1 PUSH1 0x6 MUL ADD PUSH1 0x5 ADD PUSH0 PUSH2 0x100 EXP DUP2 SLOAD DUP2 PUSH1 0xFF MUL NOT AND SWAP1 DUP4 ISZERO ISZERO MUL OR SWAP1 SSTORE POP PUSH1 0x1 SWAP2 POP POP PUSH2 0x74E JUMP JUMPDEST PUSH0 SWAP2 POP POP JUMPDEST SWAP2 SWAP1 POP JUMP JUMPDEST PUSH2 0x75C DUP2 PUSH2 0x808 JUMP JUMPDEST POP JUMP JUMPDEST PUSH0 DUP1 PUSH0 SWAP1 POP JUMPDEST PUSH1 0x1 DUP1 SLOAD SWAP1 POP DUP2 LT ISZERO PUSH2 0x7FC JUMPI DUP3 PUSH20 0xFFFFFFFFFFFFFFFFFFFFFFFFFFFFFFFFFFFFFFFF AND PUSH1 0x1 DUP3 DUP2 SLOAD DUP2 LT PUSH2 0x79D JUMPI PUSH2 0x79C PUSH2 0x1101 JUMP JUMPDEST JUMPDEST SWAP1 PUSH0 MSTORE PUSH1 0x20 PUSH0 KECCAK256 SWAP1 PUSH1 0x6 MUL ADD PUSH0 ADD PUSH0 SWAP1 SLOAD SWAP1 PUSH2 0x100 EXP SWAP1 DIV PUSH20 0xFFFFFFFFFFFFFFFFFFFFFFFFFFFFFFFFFFFFFFFF AND PUSH20 0xFFFFFFFFFFFFFFFFFFFFFFFFFFFFFFFFFFFFFFFF AND SUB PUSH2 0x7EF JUMPI DUP1 SWAP2 POP POP PUSH2 0x803 JUMP JUMPDEST DUP1 DUP1 PUSH1 0x1 ADD SWAP2 POP POP PUSH2 0x765 JUMP JUMPDEST POP PUSH2 0x3E7 SWAP1 POP JUMPDEST SWAP2 SWAP1 POP JUMP JUMPDEST PUSH0 JUMPDEST PUSH1 0x1 DUP1 SLOAD SWAP1 POP DUP2 LT ISZERO PUSH2 0x914 JUMPI DUP2 PUSH20 0xFFFFFFFFFFFFFFFFFFFFFFFFFFFFFFFFFFFFFFFF AND PUSH1 0x1 DUP3 DUP2 SLOAD DUP2 LT PUSH2 0x842 JUMPI PUSH2 0x841 PUSH2 0x1101 JUMP JUMPDEST JUMPDEST SWAP1 PUSH0 MSTORE PUSH1 0x20 PUSH0 KECCAK256 SWAP1 PUSH1 0x6 MUL ADD PUSH0 ADD PUSH0 SWAP1 SLOAD SWAP1 PUSH2 0x100 EXP SWAP1 DIV PUSH20 0xFFFFFFFFFFFFFFFFFFFFFFFFFFFFFFFFFFFFFFFF AND PUSH20 0xFFFFFFFFFFFFFFFFFFFFFFFFFFFFFFFFFFFFFFFF AND SUB PUSH2 0x907 JUMPI CALLVALUE PUSH1 0x1 DUP3 DUP2 SLOAD DUP2 LT PUSH2 0x8A0 JUMPI PUSH2 0x89F PUSH2 0x1101 JUMP JUMPDEST JUMPDEST SWAP1 PUSH0 MSTORE PUSH1 0x20 PUSH0 KECCAK256 SWAP1 PUSH1 0x6 MUL ADD PUSH1 0x4 ADD PUSH0 DUP3 DUP3 SLOAD PUSH2 0x8BD SWAP2 SWAP1 PUSH2 0x12B9 JUMP JUMPDEST SWAP3 POP POP DUP2 SWAP1 SSTORE POP PUSH32 0xDFA390B0C1C515579C441209B0F88953B3383E444305380136073B84D9AE5EAF DUP3 CALLVALUE PUSH2 0x8EF PUSH2 0x4E3 JUMP JUMPDEST PUSH1 0x40 MLOAD PUSH2 0x8FE SWAP4 SWAP3 SWAP2 SWAP1 PUSH2 0x12FB JUMP JUMPDEST PUSH1 0x40 MLOAD DUP1 SWAP2 SUB SWAP1 LOG1 JUMPDEST DUP1 DUP1 PUSH1 0x1 ADD SWAP2 POP POP PUSH2 0x80A JUMP JUMPDEST POP POP JUMP JUMPDEST PUSH0 PUSH1 0x40 MLOAD SWAP1 POP SWAP1 JUMP JUMPDEST PUSH0 DUP1 REVERT JUMPDEST PUSH0 DUP1 REVERT JUMPDEST PUSH0 PUSH20 0xFFFFFFFFFFFFFFFFFFFFFFFFFFFFFFFFFFFFFFFF DUP3 AND SWAP1 POP SWAP2 SWAP1 POP JUMP JUMPDEST PUSH0 PUSH2 0x952 DUP3 PUSH2 0x929 JUMP JUMPDEST SWAP1 POP SWAP2 SWAP1 POP JUMP JUMPDEST PUSH2 0x962 DUP2 PUSH2 0x948 JUMP JUMPDEST DUP2 EQ PUSH2 0x96C JUMPI PUSH0 DUP1 REVERT JUMPDEST POP JUMP JUMPDEST PUSH0 DUP2 CALLDATALOAD SWAP1 POP PUSH2 0x97D DUP2 PUSH2 0x959 JUMP JUMPDEST SWAP3 SWAP2 POP POP JUMP JUMPDEST PUSH0 DUP1 REVERT JUMPDEST PUSH0 DUP1 REVERT JUMPDEST PUSH0 PUSH1 0x1F NOT PUSH1 0x1F DUP4 ADD AND SWAP1 POP SWAP2 SWAP1 POP JUMP JUMPDEST PUSH32 0x4E487B7100000000000000000000000000000000000000000000000000000000 PUSH0 MSTORE PUSH1 0x41 PUSH1 0x4 MSTORE PUSH1 0x24 PUSH0 REVERT JUMPDEST PUSH2 0x9D1 DUP3 PUSH2 0x98B JUMP JUMPDEST DUP2 ADD DUP2 DUP2 LT PUSH8 0xFFFFFFFFFFFFFFFF DUP3 GT OR ISZERO PUSH2 0x9F0 JUMPI PUSH2 0x9EF PUSH2 0x99B JUMP JUMPDEST JUMPDEST DUP1 PUSH1 0x40 MSTORE POP POP POP JUMP JUMPDEST PUSH0 PUSH2 0xA02 PUSH2 0x918 JUMP JUMPDEST SWAP1 POP PUSH2 0xA0E DUP3 DUP3 PUSH2 0x9C8 JUMP JUMPDEST SWAP2 SWAP1 POP JUMP JUMPDEST PUSH0 PUSH8 0xFFFFFFFFFFFFFFFF DUP3 GT ISZERO PUSH2 0xA2D JUMPI PUSH2 0xA2C PUSH2 0x99B JUMP JUMPDEST JUMPDEST PUSH2 0xA36 DUP3 PUSH2 0x98B JUMP JUMPDEST SWAP1 POP PUSH1 0x20 DUP2 ADD SWAP1 POP SWAP2 SWAP1 POP JUMP JUMPDEST DUP3 DUP2 DUP4 CALLDATACOPY PUSH0 DUP4 DUP4 ADD MSTORE POP POP POP JUMP JUMPDEST PUSH0 PUSH2 0xA63 PUSH2 0xA5E DUP5 PUSH2 0xA13 JUMP JUMPDEST PUSH2 0x9F9 JUMP JUMPDEST SWAP1 POP DUP3 DUP2 MSTORE PUSH1 0x20 DUP2 ADD DUP5 DUP5 DUP5 ADD GT ISZERO PUSH2 0xA7F JUMPI PUSH2 0xA7E PUSH2 0x987 JUMP JUMPDEST JUMPDEST PUSH2 0xA8A DUP5 DUP3 DUP6 PUSH2 0xA43 JUMP JUMPDEST POP SWAP4 SWAP3 POP POP POP JUMP JUMPDEST PUSH0 DUP3 PUSH1 0x1F DUP4 ADD SLT PUSH2 0xAA6 JUMPI PUSH2 0xAA5 PUSH2 0x983 JUMP JUMPDEST JUMPDEST DUP2 CALLDATALOAD PUSH2 0xAB6 DUP5 DUP3 PUSH1 0x20 DUP7 ADD PUSH2 0xA51 JUMP JUMPDEST SWAP2 POP POP SWAP3 SWAP2 POP POP JUMP JUMPDEST PUSH0 DUP2 SWAP1 POP SWAP2 SWAP1 POP JUMP JUMPDEST PUSH2 0xAD1 DUP2 PUSH2 0xABF JUMP JUMPDEST DUP2 EQ PUSH2 0xADB JUMPI PUSH0 DUP1 REVERT JUMPDEST POP JUMP JUMPDEST PUSH0 DUP2 CALLDATALOAD SWAP1 POP PUSH2 0xAEC DUP2 PUSH2 0xAC8 JUMP JUMPDEST SWAP3 SWAP2 POP POP JUMP JUMPDEST PUSH0 DUP2 ISZERO ISZERO SWAP1 POP SWAP2 SWAP1 POP JUMP JUMPDEST PUSH2 0xB06 DUP2 PUSH2 0xAF2 JUMP JUMPDEST DUP2 EQ PUSH2 0xB10 JUMPI PUSH0 DUP1 REVERT JUMPDEST POP JUMP JUMPDEST PUSH0 DUP2 CALLDATALOAD SWAP1 POP PUSH2 0xB21 DUP2 PUSH2 0xAFD JUMP JUMPDEST SWAP3 SWAP2 POP POP JUMP JUMPDEST PUSH0 DUP1 PUSH0 DUP1 PUSH0 DUP1 PUSH1 0xC0 DUP8 DUP10 SUB SLT ISZERO PUSH2 0xB41 JUMPI PUSH2 0xB40 PUSH2 0x921 JUMP JUMPDEST JUMPDEST PUSH0 PUSH2 0xB4E DUP10 DUP3 DUP11 ADD PUSH2 0x96F JUMP JUMPDEST SWAP7 POP POP PUSH1 0x20 DUP8 ADD CALLDATALOAD PUSH8 0xFFFFFFFFFFFFFFFF DUP2 GT ISZERO PUSH2 0xB6F JUMPI PUSH2 0xB6E PUSH2 0x925 JUMP JUMPDEST JUMPDEST PUSH2 0xB7B DUP10 DUP3 DUP11 ADD PUSH2 0xA92 JUMP JUMPDEST SWAP6 POP POP PUSH1 0x40 DUP8 ADD CALLDATALOAD PUSH8 0xFFFFFFFFFFFFFFFF DUP2 GT ISZERO PUSH2 0xB9C JUMPI PUSH2 0xB9B PUSH2 0x925 JUMP JUMPDEST JUMPDEST PUSH2 0xBA8 DUP10 DUP3 DUP11 ADD PUSH2 0xA92 JUMP JUMPDEST SWAP5 POP POP PUSH1 0x60 PUSH2 0xBB9 DUP10 DUP3 DUP11 ADD PUSH2 0xADE JUMP JUMPDEST SWAP4 POP POP PUSH1 0x80 PUSH2 0xBCA DUP10 DUP3 DUP11 ADD PUSH2 0xADE JUMP JUMPDEST SWAP3 POP POP PUSH1 0xA0 PUSH2 0xBDB DUP10 DUP3 DUP11 ADD PUSH2 0xB13 JUMP JUMPDEST SWAP2 POP POP SWAP3 SWAP6 POP SWAP3 SWAP6 POP SWAP3 SWAP6 JUMP JUMPDEST PUSH0 PUSH1 0x20 DUP3 DUP5 SUB SLT ISZERO PUSH2 0xBFD JUMPI PUSH2 0xBFC PUSH2 0x921 JUMP JUMPDEST JUMPDEST PUSH0 PUSH2 0xC0A DUP5 DUP3 DUP6 ADD PUSH2 0x96F JUMP JUMPDEST SWAP2 POP POP SWAP3 SWAP2 POP POP JUMP JUMPDEST PUSH2 0xC1C DUP2 PUSH2 0xABF JUMP JUMPDEST DUP3 MSTORE POP POP JUMP JUMPDEST PUSH0 PUSH1 0x20 DUP3 ADD SWAP1 POP PUSH2 0xC35 PUSH0 DUP4 ADD DUP5 PUSH2 0xC13 JUMP JUMPDEST SWAP3 SWAP2 POP POP JUMP JUMPDEST PUSH0 PUSH1 0x20 DUP3 DUP5 SUB SLT ISZERO PUSH2 0xC50 JUMPI PUSH2 0xC4F PUSH2 0x921 JUMP JUMPDEST JUMPDEST PUSH0 PUSH2 0xC5D DUP5 DUP3 DUP6 ADD PUSH2 0xADE JUMP JUMPDEST SWAP2 POP POP SWAP3 SWAP2 POP POP JUMP JUMPDEST PUSH2 0xC6F DUP2 PUSH2 0x948 JUMP JUMPDEST DUP3 MSTORE POP POP JUMP JUMPDEST PUSH0 DUP2 MLOAD SWAP1 POP SWAP2 SWAP1 POP JUMP JUMPDEST PUSH0 DUP3 DUP3 MSTORE PUSH1 0x20 DUP3 ADD SWAP1 POP SWAP3 SWAP2 POP POP JUMP JUMPDEST DUP3 DUP2 DUP4 MCOPY PUSH0 DUP4 DUP4 ADD MSTORE POP POP POP JUMP JUMPDEST PUSH0 PUSH2 0xCA7 DUP3 PUSH2 0xC75 JUMP JUMPDEST PUSH2 0xCB1 DUP2 DUP6 PUSH2 0xC7F JUMP JUMPDEST SWAP4 POP PUSH2 0xCC1 DUP2 DUP6 PUSH1 0x20 DUP7 ADD PUSH2 0xC8F JUMP JUMPDEST PUSH2 0xCCA DUP2 PUSH2 0x98B JUMP JUMPDEST DUP5 ADD SWAP2 POP POP SWAP3 SWAP2 POP POP JUMP JUMPDEST PUSH2 0xCDE DUP2 PUSH2 0xAF2 JUMP JUMPDEST DUP3 MSTORE POP POP JUMP JUMPDEST PUSH0 PUSH1 0xC0 DUP3 ADD SWAP1 POP PUSH2 0xCF7 PUSH0 DUP4 ADD DUP10 PUSH2 0xC66 JUMP JUMPDEST DUP2 DUP2 SUB PUSH1 0x20 DUP4 ADD MSTORE PUSH2 0xD09 DUP2 DUP9 PUSH2 0xC9D JUMP JUMPDEST SWAP1 POP DUP2 DUP2 SUB PUSH1 0x40 DUP4 ADD MSTORE PUSH2 0xD1D DUP2 DUP8 PUSH2 0xC9D JUMP JUMPDEST SWAP1 POP PUSH2 0xD2C PUSH1 0x60 DUP4 ADD DUP7 PUSH2 0xC13 JUMP JUMPDEST PUSH2 0xD39 PUSH1 0x80 DUP4 ADD DUP6 PUSH2 0xC13 JUMP JUMPDEST PUSH2 0xD46 PUSH1 0xA0 DUP4 ADD DUP5 PUSH2 0xCD5 JUMP JUMPDEST SWAP8 SWAP7 POP POP POP POP POP POP POP JUMP JUMPDEST PUSH0 PUSH2 0xD5B DUP3 PUSH2 0x929 JUMP JUMPDEST SWAP1 POP SWAP2 SWAP1 POP JUMP JUMPDEST PUSH2 0xD6B DUP2 PUSH2 0xD51 JUMP JUMPDEST DUP2 EQ PUSH2 0xD75 JUMPI PUSH0 DUP1 REVERT JUMPDEST POP JUMP JUMPDEST PUSH0 DUP2 CALLDATALOAD SWAP1 POP PUSH2 0xD86 DUP2 PUSH2 0xD62 JUMP JUMPDEST SWAP3 SWAP2 POP POP JUMP JUMPDEST PUSH0 PUSH1 0x20 DUP3 DUP5 SUB SLT ISZERO PUSH2 0xDA1 JUMPI PUSH2 0xDA0 PUSH2 0x921 JUMP JUMPDEST JUMPDEST PUSH0 PUSH2 0xDAE DUP5 DUP3 DUP6 ADD PUSH2 0xD78 JUMP JUMPDEST SWAP2 POP POP SWAP3 SWAP2 POP POP JUMP JUMPDEST PUSH0 PUSH1 0x20 DUP3 ADD SWAP1 POP PUSH2 0xDCA PUSH0 DUP4 ADD DUP5 PUSH2 0xCD5 JUMP JUMPDEST SWAP3 SWAP2 POP POP JUMP JUMPDEST PUSH32 0x4F6E6C7920746865206F776E65722063616E20616464206B6964730000000000 PUSH0 DUP3 ADD MSTORE POP JUMP JUMPDEST PUSH0 PUSH2 0xE04 PUSH1 0x1B DUP4 PUSH2 0xC7F JUMP JUMPDEST SWAP2 POP PUSH2 0xE0F DUP3 PUSH2 0xDD0 JUMP JUMPDEST PUSH1 0x20 DUP3 ADD SWAP1 POP SWAP2 SWAP1 POP JUMP JUMPDEST PUSH0 PUSH1 0x20 DUP3 ADD SWAP1 POP DUP2 DUP2 SUB PUSH0 DUP4 ADD MSTORE PUSH2 0xE31 DUP2 PUSH2 0xDF8 JUMP JUMPDEST SWAP1 POP SWAP2 SWAP1 POP JUMP JUMPDEST PUSH32 0x4E487B7100000000000000000000000000000000000000000000000000000000 PUSH0 MSTORE PUSH1 0x22 PUSH1 0x4 MSTORE PUSH1 0x24 PUSH0 REVERT JUMPDEST PUSH0 PUSH1 0x2 DUP3 DIV SWAP1 POP PUSH1 0x1 DUP3 AND DUP1 PUSH2 0xE7C JUMPI PUSH1 0x7F DUP3 AND SWAP2 POP JUMPDEST PUSH1 0x20 DUP3 LT DUP2 SUB PUSH2 0xE8F JUMPI PUSH2 0xE8E PUSH2 0xE38 JUMP JUMPDEST JUMPDEST POP SWAP2 SWAP1 POP JUMP JUMPDEST PUSH0 DUP2 SWAP1 POP DUP2 PUSH0 MSTORE PUSH1 0x20 PUSH0 KECCAK256 SWAP1 POP SWAP2 SWAP1 POP JUMP JUMPDEST PUSH0 PUSH1 0x20 PUSH1 0x1F DUP4 ADD DIV SWAP1 POP SWAP2 SWAP1 POP JUMP JUMPDEST PUSH0 DUP3 DUP3 SHL SWAP1 POP SWAP3 SWAP2 POP POP JUMP JUMPDEST PUSH0 PUSH1 0x8 DUP4 MUL PUSH2 0xEF1 PUSH32 0xFFFFFFFFFFFFFFFFFFFFFFFFFFFFFFFFFFFFFFFFFFFFFFFFFFFFFFFFFFFFFFFF DUP3 PUSH2 0xEB6 JUMP JUMPDEST PUSH2 0xEFB DUP7 DUP4 PUSH2 0xEB6 JUMP JUMPDEST SWAP6 POP DUP1 NOT DUP5 AND SWAP4 POP DUP1 DUP7 AND DUP5 OR SWAP3 POP POP POP SWAP4 SWAP3 POP POP POP JUMP JUMPDEST PUSH0 DUP2 SWAP1 POP SWAP2 SWAP1 POP JUMP JUMPDEST PUSH0 PUSH2 0xF36 PUSH2 0xF31 PUSH2 0xF2C DUP5 PUSH2 0xABF JUMP JUMPDEST PUSH2 0xF13 JUMP JUMPDEST PUSH2 0xABF JUMP JUMPDEST SWAP1 POP SWAP2 SWAP1 POP JUMP JUMPDEST PUSH0 DUP2 SWAP1 POP SWAP2 SWAP1 POP JUMP JUMPDEST PUSH2 0xF4F DUP4 PUSH2 0xF1C JUMP JUMPDEST PUSH2 0xF63 PUSH2 0xF5B DUP3 PUSH2 0xF3D JUMP JUMPDEST DUP5 DUP5 SLOAD PUSH2 0xEC2 JUMP JUMPDEST DUP3 SSTORE POP POP POP POP JUMP JUMPDEST PUSH0 SWAP1 JUMP JUMPDEST PUSH2 0xF77 PUSH2 0xF6B JUMP JUMPDEST PUSH2 0xF82 DUP2 DUP5 DUP5 PUSH2 0xF46 JUMP JUMPDEST POP POP POP JUMP JUMPDEST JUMPDEST DUP2 DUP2 LT ISZERO PUSH2 0xFA5 JUMPI PUSH2 0xF9A PUSH0 DUP3 PUSH2 0xF6F JUMP JUMPDEST PUSH1 0x1 DUP2 ADD SWAP1 POP PUSH2 0xF88 JUMP JUMPDEST POP POP JUMP JUMPDEST PUSH1 0x1F DUP3 GT ISZERO PUSH2 0xFEA JUMPI PUSH2 0xFBB DUP2 PUSH2 0xE95 JUMP JUMPDEST PUSH2 0xFC4 DUP5 PUSH2 0xEA7 JUMP JUMPDEST DUP2 ADD PUSH1 0x20 DUP6 LT ISZERO PUSH2 0xFD3 JUMPI DUP2 SWAP1 POP JUMPDEST PUSH2 0xFE7 PUSH2 0xFDF DUP6 PUSH2 0xEA7 JUMP JUMPDEST DUP4 ADD DUP3 PUSH2 0xF87 JUMP JUMPDEST POP POP JUMPDEST POP POP POP JUMP JUMPDEST PUSH0 DUP3 DUP3 SHR SWAP1 POP SWAP3 SWAP2 POP POP JUMP JUMPDEST PUSH0 PUSH2 0x100A PUSH0 NOT DUP5 PUSH1 0x8 MUL PUSH2 0xFEF JUMP JUMPDEST NOT DUP1 DUP4 AND SWAP2 POP POP SWAP3 SWAP2 POP POP JUMP JUMPDEST PUSH0 PUSH2 0x1022 DUP4 DUP4 PUSH2 0xFFB JUMP JUMPDEST SWAP2 POP DUP3 PUSH1 0x2 MUL DUP3 OR SWAP1 POP SWAP3 SWAP2 POP POP JUMP JUMPDEST PUSH2 0x103B DUP3 PUSH2 0xC75 JUMP JUMPDEST PUSH8 0xFFFFFFFFFFFFFFFF DUP2 GT ISZERO PUSH2 0x1054 JUMPI PUSH2 0x1053 PUSH2 0x99B JUMP JUMPDEST JUMPDEST PUSH2 0x105E DUP3 SLOAD PUSH2 0xE65 JUMP JUMPDEST PUSH2 0x1069 DUP3 DUP3 DUP6 PUSH2 0xFA9 JUMP JUMPDEST PUSH0 PUSH1 0x20 SWAP1 POP PUSH1 0x1F DUP4 GT PUSH1 0x1 DUP2 EQ PUSH2 0x109A JUMPI PUSH0 DUP5 ISZERO PUSH2 0x1088 JUMPI DUP3 DUP8 ADD MLOAD SWAP1 POP JUMPDEST PUSH2 0x1092 DUP6 DUP3 PUSH2 0x1017 JUMP JUMPDEST DUP7 SSTORE POP PUSH2 0x10F9 JUMP JUMPDEST PUSH1 0x1F NOT DUP5 AND PUSH2 0x10A8 DUP7 PUSH2 0xE95 JUMP JUMPDEST PUSH0 JUMPDEST DUP3 DUP2 LT ISZERO PUSH2 0x10CF JUMPI DUP5 DUP10 ADD MLOAD DUP3 SSTORE PUSH1 0x1 DUP3 ADD SWAP2 POP PUSH1 0x20 DUP6 ADD SWAP5 POP PUSH1 0x20 DUP2 ADD SWAP1 POP PUSH2 0x10AA JUMP JUMPDEST DUP7 DUP4 LT ISZERO PUSH2 0x10EC JUMPI DUP5 DUP10 ADD MLOAD PUSH2 0x10E8 PUSH1 0x1F DUP10 AND DUP3 PUSH2 0xFFB JUMP JUMPDEST DUP4 SSTORE POP JUMPDEST PUSH1 0x1 PUSH1 0x2 DUP9 MUL ADD DUP9 SSTORE POP POP POP JUMPDEST POP POP POP POP POP POP JUMP JUMPDEST PUSH32 0x4E487B7100000000000000000000000000000000000000000000000000000000 PUSH0 MSTORE PUSH1 0x32 PUSH1 0x4 MSTORE PUSH1 0x24 PUSH0 REVERT JUMPDEST PUSH32 0x596F75206D75737420626520746865206B696420746F20776974686472617700 PUSH0 DUP3 ADD MSTORE POP JUMP JUMPDEST PUSH0 PUSH2 0x1162 PUSH1 0x1F DUP4 PUSH2 0xC7F JUMP JUMPDEST SWAP2 POP PUSH2 0x116D DUP3 PUSH2 0x112E JUMP JUMPDEST PUSH1 0x20 DUP3 ADD SWAP1 POP SWAP2 SWAP1 POP JUMP JUMPDEST PUSH0 PUSH1 0x20 DUP3 ADD SWAP1 POP DUP2 DUP2 SUB PUSH0 DUP4 ADD MSTORE PUSH2 0x118F DUP2 PUSH2 0x1156 JUMP JUMPDEST SWAP1 POP SWAP2 SWAP1 POP JUMP JUMPDEST PUSH32 0x596F7520617265206E6F742061626C6520746F20776974686472617720617420 PUSH0 DUP3 ADD MSTORE PUSH32 0x746869732074696D650000000000000000000000000000000000000000000000 PUSH1 0x20 DUP3 ADD MSTORE POP JUMP JUMPDEST PUSH0 PUSH2 0x11F0 PUSH1 0x29 DUP4 PUSH2 0xC7F JUMP JUMPDEST SWAP2 POP PUSH2 0x11FB DUP3 PUSH2 0x1196 JUMP JUMPDEST PUSH1 0x40 DUP3 ADD SWAP1 POP SWAP2 SWAP1 POP JUMP JUMPDEST PUSH0 PUSH1 0x20 DUP3 ADD SWAP1 POP DUP2 DUP2 SUB PUSH0 DUP4 ADD MSTORE PUSH2 0x121D DUP2 PUSH2 0x11E4 JUMP JUMPDEST SWAP1 POP SWAP2 SWAP1 POP JUMP JUMPDEST PUSH32 0x596F752063616E6E6F7420776974686472617720796574000000000000000000 PUSH0 DUP3 ADD MSTORE POP JUMP JUMPDEST PUSH0 PUSH2 0x1258 PUSH1 0x17 DUP4 PUSH2 0xC7F JUMP JUMPDEST SWAP2 POP PUSH2 0x1263 DUP3 PUSH2 0x1224 JUMP JUMPDEST PUSH1 0x20 DUP3 ADD SWAP1 POP SWAP2 SWAP1 POP JUMP JUMPDEST PUSH0 PUSH1 0x20 DUP3 ADD SWAP1 POP DUP2 DUP2 SUB PUSH0 DUP4 ADD MSTORE PUSH2 0x1285 DUP2 PUSH2 0x124C JUMP JUMPDEST SWAP1 POP SWAP2 SWAP1 POP JUMP JUMPDEST PUSH32 0x4E487B7100000000000000000000000000000000000000000000000000000000 PUSH0 MSTORE PUSH1 0x11 PUSH1 0x4 MSTORE PUSH1 0x24 PUSH0 REVERT JUMPDEST PUSH0 PUSH2 0x12C3 DUP3 PUSH2 0xABF JUMP JUMPDEST SWAP2 POP PUSH2 0x12CE DUP4 PUSH2 0xABF JUMP JUMPDEST SWAP3 POP DUP3 DUP3 ADD SWAP1 POP DUP1 DUP3 GT ISZERO PUSH2 0x12E6 JUMPI PUSH2 0x12E5 PUSH2 0x128C JUMP JUMPDEST JUMPDEST SWAP3 SWAP2 POP POP JUMP JUMPDEST PUSH2 0x12F5 DUP2 PUSH2 0xD51 JUMP JUMPDEST DUP3 MSTORE POP POP JUMP JUMPDEST PUSH0 PUSH1 0x60 DUP3 ADD SWAP1 POP PUSH2 0x130E PUSH0 DUP4 ADD DUP7 PUSH2 0x12EC JUMP JUMPDEST PUSH2 0x131B PUSH1 0x20 DUP4 ADD DUP6 PUSH2 0xC13 JUMP JUMPDEST PUSH2 0x1328 PUSH1 0x40 DUP4 ADD DUP5 PUSH2 0xC13 JUMP JUMPDEST SWAP5 SWAP4 POP POP POP POP JUMP INVALID LOG2 PUSH5 0x6970667358 0x22 SLT KECCAK256 0xEA SWAP7 ADD SWAP12 0xEE MSTORE8 0xE1 INVALID 0xF9 0xBD JUMPDEST BLOBHASH CALL 0xCA CALLDATALOAD SDIV 0xAF SWAP7 0xBF SWAP14 0xA5 0x27 SWAP3 0xC DUP1 PUSH26 0xAE2CFB17444164736F6C634300081A0033000000000000000000 "
		},
		"gasEstimates": {
			"creation": {
				"codeDepositCost": "993200",
				"executionCost": "25297",
				"totalCost": "1018497"
			},
			"external": {
				"addKid(address,string,string,uint256,uint256,bool)": "infinite",
				"availableToWithdraw(address)": "infinite",
				"balanceOf()": "356",
				"deposit(address)": "infinite",
				"kids(uint256)": "infinite",
				"withdraw(address)": "infinite"
			},
			"internal": {
				"addToKidsBalance(address)": "infinite",
				"getIndex(address)": "infinite"
			}
		},
		"methodIdentifiers": {
			"addKid(address,string,string,uint256,uint256,bool)": "31d575c5",
			"availableToWithdraw(address)": "a25db8ce",
			"balanceOf()": "722713f7",
			"deposit(address)": "f340fa01",
			"kids(uint256)": "7285fd3a",
			"withdraw(address)": "51cff8d9"
		}
	},
	"abi": [
		{
			"inputs": [],
			"stateMutability": "nonpayable",
			"type": "constructor"
		},
		{
			"anonymous": false,
			"inputs": [
				{
					"indexed": false,
					"internalType": "address",
					"name": "addr",
					"type": "address"
				},
				{
					"indexed": false,
					"internalType": "uint256",
					"name": "amount",
					"type": "uint256"
				},
				{
					"indexed": false,
					"internalType": "uint256",
					"name": "contractBalance",
					"type": "uint256"
				}
			],
			"name": "LogKidFundingReceived",
			"type": "event"
		},
		{
			"inputs": [
				{
					"internalType": "address payable",
					"name": "walletAddress",
					"type": "address"
				},
				{
					"internalType": "string",
					"name": "firstName",
					"type": "string"
				},
				{
					"internalType": "string",
					"name": "lastName",
					"type": "string"
				},
				{
					"internalType": "uint256",
					"name": "releaseTime",
					"type": "uint256"
				},
				{
					"internalType": "uint256",
					"name": "amount",
					"type": "uint256"
				},
				{
					"internalType": "bool",
					"name": "canWithdraw",
					"type": "bool"
				}
			],
			"name": "addKid",
			"outputs": [],
			"stateMutability": "nonpayable",
			"type": "function"
		},
		{
			"inputs": [
				{
					"internalType": "address",
					"name": "walletAddress",
					"type": "address"
				}
			],
			"name": "availableToWithdraw",
			"outputs": [
				{
					"internalType": "bool",
					"name": "",
					"type": "bool"
				}
			],
			"stateMutability": "nonpayable",
			"type": "function"
		},
		{
			"inputs": [],
			"name": "balanceOf",
			"outputs": [
				{
					"internalType": "uint256",
					"name": "",
					"type": "uint256"
				}
			],
			"stateMutability": "view",
			"type": "function"
		},
		{
			"inputs": [
				{
					"internalType": "address",
					"name": "walletAddress",
					"type": "address"
				}
			],
			"name": "deposit",
			"outputs": [],
			"stateMutability": "payable",
			"type": "function"
		},
		{
			"inputs": [
				{
					"internalType": "uint256",
					"name": "",
					"type": "uint256"
				}
			],
			"name": "kids",
			"outputs": [
				{
					"internalType": "address payable",
					"name": "walletAddress",
					"type": "address"
				},
				{
					"internalType": "string",
					"name": "firstName",
					"type": "string"
				},
				{
					"internalType": "string",
					"name": "lastName",
					"type": "string"
				},
				{
					"internalType": "uint256",
					"name": "releaseTime",
					"type": "uint256"
				},
				{
					"internalType": "uint256",
					"name": "amount",
					"type": "uint256"
				},
				{
					"internalType": "bool",
					"name": "canWithdraw",
					"type": "bool"
				}
			],
			"stateMutability": "view",
			"type": "function"
		},
		{
			"inputs": [
				{
					"internalType": "address payable",
					"name": "walletAddress",
					"type": "address"
				}
			],
			"name": "withdraw",
			"outputs": [],
			"stateMutability": "payable",
			"type": "function"
		}
	]
}